:1000000009C021C020C01FC01EC01DC01CC01BC015
:100010001AC01AC011241FBECFE9CDBF10E0A0E660
:10002000B0E0ECE8F2E002C005900D92A236B10714
:10003000D9F720E0A2E6B0E001C01D92A736B207D2
:10004000E1F718D121C1DCCF1F920F920FB60F92AA
:1000500011242F933F938F939F938091600085305D
:1000600031F485B1833D18F484E080936000809181
:100070006000843031F485B1843C18F483E08093CF
:10008000600080916000833031F485B18A3B18F4C0
:1000900082E08093600080916000823031F485B10D
:1000A000803B18F481E08093600080916000813093
:1000B00029F485B1813A10F41092600080916000BB
:1000C000811106C085B18A3A18F081E08093600002
:1000D00080916000813031F485B1893B18F082E075
:1000E0008093600080916000823031F485B1833C60
:1000F00018F083E08093600080916000833031F4D9
:1001000085B18D3C18F084E08093600080916000A0
:10011000843031F485B18C3D18F085E08093600027
:1001200080916000811105C08091660087FF0DC03D
:1001300004C080916000882341F08091650031E027
:10014000843608F030E0832F0BC02091650081E0F9
:1001500090E0211102C080E090E091958195910995
:1001600090916500890F80936500809160008230D6
:1001700040F08091640031E0843608F030E0832F55
:100180000BC02091640081E090E0211102C080E06A
:1001900090E091958195910990916400890F8093E9
:1001A000640080916000833040F08091630031E012
:1001B000843608F030E0832F0BC02091630081E08B
:1001C00090E0211102C080E090E091958195910925
:1001D00090916300890F8093630080916000853067
:1001E00029F48091660087FF0DC004C080916000F3
:1001F000843041F48091620031E0843608F030E0D0
:10020000832F0BC02091620081E090E0211102C099
:1002100080E090E091958195910990916200890F1D
:1002200080936200809166008F5F8093660084E611
:1002300090916500981301C0C39A9091640098133F
:1002400001C0C49A90916300981301C0C19A909123
:100250006200981301C0C09A815051F788B3847E20
:1002600088BB9F918F913F912F910F900FBE0F9060
:100270001F9018958BE187BB18BAA29A81E687B9BF
:0C0280008FEE86B97894FFCFF894FFCF82
:02028C0005006B
:00000001FF
