:1000000009C021C020C01FC01EC01DC01CC01BC015
:100010001AC01AC011241FBECFE9CDBF10E0A0E660
:10002000B0E0E4EAF1E002C005900D92A236B1071B
:10003000D9F720E0A2E6B0E001C01D92A336B207D6
:10004000E1F7A4D0ADC0DCCF1F920F920FB60F9294
:1000500011248F9380916000853031F485B1833D08
:1000600018F484E08093600080916000843031F463
:1000700085B1843C18F483E0809360008091600037
:10008000833031F485B18A3B18F482E080936000BC
:1000900080916000823031F485B1803B18F481E0BA
:1000A0008093600080916000813029F485B1813AAD
:1000B00010F41092600080916000811106C085B13B
:1000C0008A3A18F081E0809360008091600081306E
:1000D00031F485B1893B18F082E080936000809113
:1000E0006000823031F485B1833C18F083E0809366
:1000F000600080916000833031F485B18D3C18F050
:1001000084E08093600080916000843031F485B198
:100110008C3D18F085E08093600080916000853010
:1001200029F48091620087FF07C004C080916000BD
:10013000843011F4C09A01C0C0988091600083306F
:1001400011F4C19A01C0C19880916000823011F40D
:10015000C49A01C0C49880916000811105C080914B
:10016000620087FF07C004C080916000813011F4F5
:10017000C39A01C0C398809162008F5F8093620030
:100180008F910F900FBE0F901F9018958BE187BB3A
:1001900018BAA29A81E687B98FEE86B97894FFCF14
:0401A000F894FFCF01
:0201A400050054
:00000001FF
